:100CFD00011962011A00090D7FBFDFEFF7FBFDFE41
:040D0D00FF011700CB
:100AB100E516B40303751802E516B40103751803AE
:100AC100E518146056146053147003020B85240357
:100AD1006003020BAA7D027C007F01120C37E4FD4A
:100AE100FC7F02120C377D027C007F03120C377DE4
:100AF100017C007F04120C377D017C007F05120C04
:100B0100377D027C007F06120C37E4FDFC7F071263
:100B11000C377D047C007F08020BA7740D251AF8A1
:100B2100E6F5A0E51975F00A84FD7C007F07120C3B
:100B310037E51975F00A84E5F0FD7C007F08120C99
:100B4100377D0A7C007F01120C377D057C007F0216
:100B5100120C37E50C75F06484FD7C007F04120CE7
:100B610037E50C75F06484E5F075F00A84FD7C00CE
:100B71007F05120C37E50C75F00A84E5F0FD7C0069
:100B81007F068022E51724FF92A092A192A292A350
:100B910092A492A592A692A77D0B7C007F01120CD4
:0A0BA10037E4FDFC7F02120C37223E
:0D0D6E00120D421208008F16120AB180F615
:03000B000209895E
:10098900C0E0C0F0C083C082C0D075D000C000C034
:0D09990001C002C003C004C005C006C007B5
:1009A600758A66758CFC0509E50970020508050B54
:1009B600E50B7002050AC39464E50A9400400D75C0
:1009C6000A00750B007F9C120CA48F0CE5181460AE
:1009D60026146060147003020A7924036003020A75
:1009E60096C3E50994A0E508940F5003020A96758C
:1009F60008007509008038E50C24F4FFE43401FE94
:100A0600C3E5099FE5089E5003020A96750800751E
:100A16000900051AE51AD394084003751A00E51A69
:100A2600B4070C0519E519D39463400375190075CD
:100A36001801805CE50C24F4FFE43401FEC3E509EB
:100A46009FE5089E404A750800750900051AE51AD3
:100A5600D394084003751A00E51A64077032051925
:100A6600E519D3946340037519007F647E00120D67
:100A760020801DC3E50994E8E50894034012750833
:100A860000750900E51770047F0180027F008F174B
:100A9600D007D006D005D004D003D002D001D000B4
:0B0AA600D0D0D082D083D0F0D0E0325E
:0E0D11000C1B3F065B4F666D7D077F6FBF8634
:100C3700EF14B408005054900C4C75F003A4C5830E
:100C470025F0C58373020C64020C68020C6C020C5D
:100C570070020C74020C7C020C84020C8CD2A480EF
:100C67000ED2A48012D2A48016D2A4801AC2A4D213
:100C7700A3D2A28016C2A4D2A3C2A2800EC2A4C2CB
:100C8700A3D2A28006C2A4C2A3C2A2741B2DF8E6F7
:0D0C9700F5807F017E00120D59E4F58022EA
:100D5900EF1FAC0670011E4C600A7D027CEFDCFEC1
:040D6900DDFC80EC41
:010D6D002263
:10080000E4F5297590FFC2932097137F14FE120D13
:10081000593097FD7F147E00120D597529012096DD
:10082000147F147E00120D593096FD7F147E001245
:100830000D597529052095147F147E00120D59302D
:1008400095FD7F147E00120D597529092094147F9F
:10085000147E00120D593094FD7F147E00120D5944
:1008600075290D7590FFC2922097147F147E001297
:100870000D593097FD7F147E00120D597529022005
:1008800096147F147E00120D593096FD7F147E0061
:10089000120D597529062095147F147E00120D59EA
:1008A0003095FD7F147E00120D5975290A2094148D
:1008B0007F147E00120D593094FD7F147E00120DBE
:1008C0005975290E7590FFC2912097147F147E00F0
:1008D000120D593097FD7F147E00120D59752903B2
:1008E0002096147F147E00120D593096FD7F147EE1
:1008F00000120D597529072095147F147E00120DE2
:10090000593095FD7F147E00120D5975290B2094E6
:10091000147F147E00120D593094FD7F147E001256
:100920000D5975290F7590FFC2902097147F147E82
:1009300000120D593097FD7F147E00120D59752954
:10094000042096147F147E00120D593096FD7F14FA
:100950007E00120D597529082095147F147E00120F
:100960000D593095FD7F147E00120D5975290C200C
:1009700094147F147E00120D593094FD7F147E0074
:08098000120D59752910AF2971
:01098800224C
:050D7B00007FE3DFFE34
:010D80002250
:040D2000AD07AC0669
:100D2400E4FBFAED25E0FFEC33FEC3EB9FEA9E50B3
:0D0D34000CB2A5120D7B0BBB00010A80E67E
:010D4100228F
:100D42005389F0438901758A66758CFCC28DD28CF9
:070D5200D2A9D2AFC2B92201
:020CA400AD079A
:100CA600E4F527F528C2B6C2B5FB7E007480A8031A
:100CB600088006CEA2E713CE13D8F8FFEDF582EF33
:100CC600558224FF92B4D2B6C2B60BBB08DCE4FB55
:100CD600D2B6C2B630B7147E80E4A803088005CE2B
:100CE600C313CE13D8F94228EE42270BBB10E1D22C
:060CF600B5E527FF7E00BA
:010CFC0022D5
:03000000020BAB45
:0C0BAB00787FE4F6D8FD758129020BF27A
:100BB700020D6EE493A3F8E493A34003F68001F2D9
:100BC70008DFF48029E493A3F85407240CC8C3333F
:100BD700C4540F4420C8834004F456800146F6DF0E
:100BE700E4800B0102040810204080900CFDE47E95
:100BF700019360BCA3FF543F30E509541FFEE49303
:100C0700A360010ECF54C025E060A840B8E493A3C9
:100C1700FAE493A3F8E493A3C8C582C8CAC583CAF4
:100C2700F0A3C8C582C8CAC583CADFE9DEE780BEAC
:010D1F0000D3
:00000001FF
