:0E0E1700012F0001320101301E01311EC10009
:100E3F007D0A7C007F01120FE37D0A7C007F021286
:100E4F000FE37D0A7C007F07120FE37D0A7C007F92
:040E5F0008020FE393
:100D1500E52FB40503020E3FE53075F00A84FD7C2E
:100D2500007F07120FE3E53075F00A84E5F0FD7CDE
:100D3500007F08120FE3E53175F00A84FD7C007F22
:100D450001120FE3E53175F00A84E5F0FD7C007FC3
:050D550002120FE32271
:100BE200E533B40109752F0475300A75310AE5330E
:100BF200B40203752F05E52F14601814601F1460EA
:100C02002614602D14603924057048C291C292D214
:100C1200938024E53224FF9292C2938020D291C223
:100C220092C294D2968016E53224FF9295C29680A3
:100C32000CD291C292C293D294C295C296020D1561
:100C4200C291E53224FF9292C293C2949295C296C7
:040C5200120E3F221D
:0D0FAA00120F52120FF98F33120BE280F676
:03000B00020800E8
:10080000C0E0C0F0C083C082C0D075D000C000C0BE
:0D08100001C002C003C004C005C006C0073F
:10081D00758A66758CFC0522E5227002052105247A
:10082D00E524700205230526E52670020525052819
:10083D00E52870020527052AE52A70020529052CF1
:10084D00E52C7002052BC3E5229402E521940040AE
:10085D0009752100752200120F1EC3E5249464E56D
:10086D0023940040457523007524007F9C120CBC19
:10087D008F2DE52DC394645004D2008002C2003048
:10088D000011E52F6405600B752F05752B00752C78
:10089D00008017200014E52FB4050F752F00752B60
:1008AD0000752C0075301F75311FC3E5269414E5B6
:1008BD002594004009752500752600120D5AC3E5D3
:1008CD002894F4E5279401401E752700752800E54E
:1008DD002F6401600BE52F64036005E52FB4050758
:1008ED007F647E00120E87C3E52A94F4E5299401F6
:1008FD00400CE53270047F0180027F008F323000A2
:10090D00030209B0E52F14601D14602A146043140E
:10091D00605024047066C3E52C9418E52B9479403F
:10092D005B752F01801EC3E52C94A0E52B940F4021
:10093D004B752F02803AC3E52C9418E52B94794022
:10094D003B752F03752B00752C0075300475310424
:10095D00802AC3E52C94A0E52B940F401F752F0022
:10096D00800EC3E52C94C8E52B9432400F752F00F3
:10097D00752B00752C0075301F75311FAE2BAF2CEC
:10098D007C037DE8120AF3ED4C7018E52F14600F0F
:10099D0014600C14600914600624047006800015A0
:0309AD00301531D1
:1009B000D007D006D005D004D003D002D001D0009B
:0B09C000D0D0D082D083D0F0D0E03245
:100E63008F348C358D36120FDA7FA0120DEE120FF0
:100E7300C4AF34120DEE120FC4AF36120DEE120FC3
:040E8300C4020FECAA
:020D93008F1EB1
:100D9500120FDA7FA0120DEE120FC4AF1E120DEE68
:100DA500120FC4120FDA7FA1120DEE120FC4120E2C
:0D0DB500A98F1F7F01120FD0120FECAF1F8E
:010DC200220E
:050FF300007FE3DFFEBA
:010FF80022D6
:040E8700AD07AC0601
:100E8B00E4FBFAED25E0FFEC33FEC3EB9FEA9E504B
:0D0E9B000CB2A5120FF30BBB00010A80E69C
:010EA8002227
:100F9500EF1FAC0670011E4C600A7D027CEFDCFE83
:040FA500DDFC80EC03
:010FA9002225
:0D0FB700120EC77FCC120F397F44020F3994
:100DC300120EC77FCC120F397FBE120F39120EE5F8
:100DD3008F3C120EE5EFFEE53CFFFDAC06EC120A7C
:0B0DE30070E4FBFA798078410209CE31
:090FDA00D2A0D2A1C2A0C2A12242
:070FEC00C2A0D2A1D2A02295
:020DEE00AD074F
:100DF000E4FB7E007480A803088006CEA2E713CE31
:100E000013D8F8FFEDF582EF558224FF92A0D2A10E
:060E1000C2A10BBB08DCCF
:010E160022B9
:100EA900E4FFD2A0FED2A130A00DA806748008806C
:0D0EB90002C313D8FC4207C2A10EBE08E818
:010EC6002209
:0A0FD000EF24FF92A0D2A1C2A122DB
:0B0FC400D2A0D2A1A2A0E433FFC2A182
:010FCF0022FF
:050FF900AF39E4F539F9
:010FFE0022D0
:100F6900E4FF20B1010F20B0027F0220B2027F030B
:050F790020B3027F041B
:010F7E002250
:100D5A00853738120F698F37E538B40107E53770E0
:100D6A0003753901E538B40207E5377003753902AE
:100D7A00E538B40307E5377003753903E538B40479
:080D8A0007E537700375390419
:010D9200223E
:100EC700C2AFD2B7C2B77FF7DFFED2B77F20DFFE50
:0D0ED700A2B7E433FE7FF7DFFED2AFAF0617
:010EE40022EB
:100F7F00C2AFC2B77E04DEFEEF24FF92B77E18DE4B
:050F8F00FED2B7D2AF55
:010F9400223A
:100F0200C2AFC2B77F02DFFED2B77F02DFFEA2B757
:0B0F1200E433FE7F18DFFED2AFAF0615
:010F1D0022B1
:020F3900AD0702
:100F3B00E4FCA8047401088002C333D8FC5DFF12E3
:060F4B000F7F0CBC08EC56
:010F5100227D
:100EE500E4FDFC120F02EF600DA8047401088002F6
:0C0EF500C333D8FC42050CBC08E9AF0573
:010F010022CD
:100F52005389F0438901758A66758CFCC28DD28CE7
:070F6200D2A9D2AFC2B922EF
:020CBC00AD0782
:100CBE00E4F53AF53BC2B6C2B5FB7E007480A803DC
:100CCE00088006CEA2E713CE13D8F8FFEDF582EF1B
:100CDE00558224FF92B4D2B6C2B60BBB08DCE4FB3D
:100CEE00D2B6C2B630B7147E80E4A803088005CE13
:100CFE00C313CE13D8F9423BEE423A0BBB10E1D2EE
:060D0E00B5E53AFF7E008E
:010D140022BC
:100E25000909000A0A0A0A0A0A0A0A0C123F065B9D
:090E35004F666D7D077F6F0040E0
:090FE300AE0574092FF8A60622E0
:100C5600E4F580EF14B408005054900C6E75F00360
:100C6600A4C58325F0C58373020C86020C8A020C88
:100C76008E020C92020C96020C9E020CA6020CAE80
:100C8600D2A4800ED2A48012D2A48016D2A4801A36
:100C9600C2A4D2A3D2A28016C2A4D2A3C2A2800E9C
:100CA600C2A4C2A3D2A28006C2A4C2A3C2A27412C4
:060CB6002DF8E6F5802296
:100F1E0074092508F8E6FD7C00AF08120C5605088A
:0A0F2E00E508C394094003750801AB
:010F38002296
:1009CB00020AE8EC5D046005E859047003020ADED4
:1009DB00120AA9580460F6EC4860F2EC7004FDFEB4
:1009EB00FF22C860DB2481C85009C39860025006FF
:1009FB00020AE59850CAF582E9294B4A7005AB8289
:100A0B00020AD475F0007C1A7880C3EF9BEE9AED46
:100A1B0099400DC3EF9BFFEE9AFEED99FDE842F076
:100A2B00DC23ACF0D0E0FFD0E0FED0E0FDAB8220C9
:100A3B00E7101BEB60BAEC2CFCEF33FFEE33FEED53
:100A4B0033FD020AC0E803F830E705C0F075F0008B
:100A5B00EF2FFFEE33FEED33FD40B830E7C280AA37
:100A6B0075F020800E75F010800575F0087D007E06
:100A7B00007F003392D530D503120B48EC33401076
:100A8B00EF33FFEE33FEED33FDEC33FCD5F0ED220F
:0E0A9B00E5F0247EA2D513CC92E7CDCEFF224B
:100AA900E9D2E7C933E833F892D5EDD2E7CD33EC93
:070AB90033FC5002B2D5220C
:100AC000EC30E7100FBF000C0EBE00080DBD000497
:100AD0000BEB6014A2D5EB13FCED92E7FD2274FF43
:100AE000FCFDFEFF22E480F8A2D574FF13FC7D809C
:030AF000E480EFB0
:03000000020B569A
:0C0B5600787FE4F6D8FD75813C020B9D11
:100AF300BC000BBE0029EF8DF084FFADF022E4CCE7
:100B0300F875F008EF2FFFEE33FEEC33FCEE9DECAF
:100B1300984005FCEE9DFE0FD5F0E9E4CEFD22EDF5
:100B2300F8F5F0EE8420D21CFEADF075F008EF2F3F
:100B3300FFED33FD4007985006D5F0F222C398FD30
:050B43000FD5F0EA22CD
:0E0B4800C3E49FFFE49EFEE49DFDE49CFC22BE
:100B6200020FAAE493A3F8E493A34003F68001F2F0
:100B720008DFF48029E493A3F85407240CC8C33394
:100B8200C4540F4420C8834004F456800146F6DF63
:100B9200E4800B0102040810204080900E17E47ECE
:100BA200019360BCA3FF543F30E509541FFEE49358
:100BB200A360010ECF54C025E060A840B8E493A31F
:100BC200FAE493A3F8E493A3C8C582C8CAC583CA4A
:100BD200F0A3C8C582C8CAC583CADFE9DEE780BE02
:010E3E0000B3
:00000001FF
