:1005590020202D20202D20200020203A20203A2064
:02056900200070
:10029A001205451205987BFF7A0579597D017F0180
:1002AA001204A57BFF7A0579627D017F021204A5FB
:1002BA00120003120181E518FB7A00750C027D0118
:1002CA007F011204E6E519FB7A00750C027D047FB2
:1002DA00011204E6E51AFB7A00750C027D077F011C
:1002EA001204E6E51BFB7A00750C027D017F0212FF
:1002FA0004E6E51CFB7A00750C027D047F021204F9
:10030A00E6E51DFB7A00750C027D077F021204E602
:02031A0080A1C0
:06056B00C2A58F80D2A79B
:080571007F027EEFDEFEDFFCDD
:01057900225F
:0A057A00C2A612056BC2A7020571AC
:1004C800CFCDCFCECCCE12012C7C007D0A12012CD0
:0404D800ED2430FFE0
:0A04DC00D2A612056BC2A70205713B
:10051A00AE07BE0104ED148006BE0209ED243F4475
:06052A0080FF12057A2299
:100545007F3812057A7F0C12057A7F0612057A7FAD
:040555000102057A20
:0A058400AC0312051AAF040204DCF8
:0604A5008B088A09890A98
:1004AB0012051AE4FDAB08AA09A90A8D827583000F
:0C04BB001200EDFF60061204DC0D80E969
:0104C7002212
:0C0472007F0AEA24FFFDE434FFFC7E005A
:08047E008E0D8F0E8C0F8D1006
:100486007F017E00E4FBEBC39510E50F6480F874F2
:0E0496008098500AAC0DAD0E12011A0B80E8D2
:0104A4002235
:0404E6008A0A8B0BE8
:1004EA0012051AAA0CEAD39400400D120472AC0A3F
:0804FA00AD0B1204C81A80EDDD
:0105020022D6
:1003C70012051AC3EA64809480400B7F2B1204DC69
:1003D7008A168B17800E7F2D1204DCC3E49BF5175A
:1003E700E49AF516AA15EAD39400400D120472ACEC
:0903F70016AD171204C81A80EDBE
:0104000022D9
:040401008A218B229F
:1004050012051AAA23EAD3940040297F1012047416
:10041500AC21AD22CFCDCFCECCCE12012CEF540FD7
:10042500FEC3940AEE5004243080022437FF1204E0
:04043500DC1A80D17C
:0104390022A0
:04043A008A268B275C
:10043E0012051AAA28EAD394004028EA24FFFDE404
:10044E0034FFFC7F027E0012047EAC26AD27CFCD9A
:10045E00CFCECCCE12012CEF54012430FF1204DC8F
:03046E001A80D21F
:010471002268
:100503005389F0438901758A66758CFCC28DD28C40
:07051300D2A9D2AFC2B92248
:10053000EF1FAC0670011E4C600A7D027CEFDCFEF2
:04054000DDFC80EC72
:010544002294
:09058E000718130B100C3B370693
:05059800C2B5C2B6224D
:06031C0025F0FDEC3EFCA3
:060322008C088D09AB07F9
:10032800D2B5E4FD7E007401A805088005C333CE6C
:1003380033CED8F9FFEBF582EF558224FF92B4D281
:10034800B6C2B60DBD08DDE4FD7E007401A805083F
:100358008005C333CE33CED8F9FFE5085EFEE50944
:100368005F4E24FF92B4D2B6C2B60DBD08DBC2B54B
:010378002262
:02037900AD07CE
:10037B00E4F9430501D2B5FB7E007401A8030880A4
:10038B0005C333CE33CED8F9FFEDF582EF5582247A
:10039B00FF92B4C2B6D2B60BBB08DDE4FBD2B6C239
:1003AB00B630B40DA8037401088002C333D8FC42E5
:0B03BB00010BBB08E8C2B5C2B4AF01E3
:0103C6002214
:10000300E4FDFC7F8E120322E51875F00A8475F077
:1000130010A4FFAEF0E51875F00A84EF7F8C12038D
:100023001CE51975F00A8475F010A4FFAEF0E5190C
:1000330075F00A847C00EF7F8812031CE51A75F0C3
:100043000A8475F010A4FFAEF0E51A75F00A847CFB
:1000530000EF25F0FDEC3EFC7F86120322E51B75C5
:10006300F00A8475F010A4FFAEF0E51B75F00A8466
:100073007C00EF25F0FDEC3EFC7F84120322E51C9F
:1000830075F00A8475F010A4FFAEF0E51C75F00A54
:10009300847C00EF25F0FDEC3EFC7F82120322E519
:1000A3001D75F00A8475F010A4FFAEF0E51D75F020
:1000B3000A847C00EF25F0FDEC3EFC7F80120322D6
:1000C300E51E75F00A8475F010A4FFAEF0E51E7509
:1000D300F00A847C00EF25F0FDEC3EFC7F8A1203DE
:0A00E300227D807C007F8E02032244
:100181007F8C120379EFC4540F75F00AA4FEEF546B
:100191000F2EF5187F88120379EFC4540F75F00AFA
:1001A100A4FEEF540F2EF5197F86120379EFC45484
:1001B1000F75F00AA4FEEF540F2EF51A7F84120377
:1001C10079EFC4540F75F00AA4FEEF540F2EF51BFE
:1001D1007F82120379EFC4540F75F00AA4FEEF5425
:1001E1000F2EF51C7F80120379EFC4540F75F00AAE
:1001F100A4FEEF540F2EF51D7F8A120379EFC4542C
:0C0201000F75F00AA4FEEF540F2EF51E3E
:01020D0022CE
:0300000002020EEB
:0C020E00787FE4F6D8FD758128020255C7
:1000ED00BB010CE58229F582E5833AF583E02250C8
:1000FD0006E92582F8E622BBFE06E92582F8E22212
:0D010D00E58229F582E5833AF583E493222B
:10011A00EF8DF0A4A8F0CF8CF0A428CE8DF0A42EF9
:02012A00FE22B3
:10012C00BC000BBE0029EF8DF084FFADF022E4CCB7
:10013C00F875F008EF2FFFEE33FEEC33FCEE9DEC80
:10014C00984005FCEE9DFE0FD5F0E9E4CEFD22EDC6
:10015C00F8F5F0EE8420D21CFEADF075F008EF2F10
:10016C00FFED33FD4007985006D5F0F222C398FD01
:05017C000FD5F0EA229E
:10021A0002029AE493A3F8E493A34003F68001F25E
:10022A0008DFF48029E493A3F85407240CC8C333E5
:10023A00C4540F4420C8834004F456800146F6DFB4
:10024A00E4800B010204081020408090058EE47EB1
:10025A00019360BCA3FF543F30E509541FFEE493A9
:10026A00A360010ECF54C025E060A840B8E493A370
:10027A00FAE493A3F8E493A3C8C582C8CAC583CA9B
:10028A00F0A3C8C582C8CAC583CADFE9DEE780BE53
:010597000063
:00000001FF
